{
  "_format": "hh-sol-artifact-1",
  "contractName": "NoEventsMarketplace",
  "sourceName": "contracts/Events/NoEventsMarketplace.sol",
  "abi": [
    {
      "inputs": [
        {
          "internalType": "uint256",
          "name": "_itemId",
          "type": "uint256"
        }
      ],
      "name": "buyItem",
      "outputs": [],
      "stateMutability": "payable",
      "type": "function"
    },
    {
      "inputs": [
        {
          "internalType": "uint256",
          "name": "",
          "type": "uint256"
        }
      ],
      "name": "items",
      "outputs": [
        {
          "internalType": "uint256",
          "name": "itemId",
          "type": "uint256"
        },
        {
          "internalType": "address",
          "name": "nftContract",
          "type": "address"
        },
        {
          "internalType": "uint256",
          "name": "tokenId",
          "type": "uint256"
        },
        {
          "internalType": "uint256",
          "name": "price",
          "type": "uint256"
        },
        {
          "internalType": "address payable",
          "name": "seller",
          "type": "address"
        },
        {
          "internalType": "uint256",
          "name": "timestampListed",
          "type": "uint256"
        },
        {
          "internalType": "address",
          "name": "buyer",
          "type": "address"
        },
        {
          "internalType": "uint256",
          "name": "timestampSold",
          "type": "uint256"
        },
        {
          "internalType": "bool",
          "name": "sold",
          "type": "bool"
        }
      ],
      "stateMutability": "view",
      "type": "function"
    },
    {
      "inputs": [
        {
          "internalType": "address",
          "name": "_nftContract",
          "type": "address"
        },
        {
          "internalType": "uint256",
          "name": "_tokenId",
          "type": "uint256"
        },
        {
          "internalType": "uint256",
          "name": "_price",
          "type": "uint256"
        }
      ],
      "name": "makeItem",
      "outputs": [],
      "stateMutability": "nonpayable",
      "type": "function"
    }
  ],
  "bytecode": "0x608060405234801561001057600080fd5b50610687806100206000396000f3fe6080604052600436106100345760003560e01c8063bfb231d214610039578063e7fb74c71461007e578063fa00afc71461009a575b600080fd5b34801561004557600080fd5b50610060600480360381019061005b919061045f565b6100c3565b604051610075999897969594939291906104c4565b60405180910390f35b6100986004803603810190610093919061045f565b61017e565b005b3480156100a657600080fd5b506100c160048036038101906100bc9190610410565b610202565b005b60016020528060005260406000206000915090508060000154908060010160009054906101000a900473ffffffffffffffffffffffffffffffffffffffff16908060020154908060030154908060040160009054906101000a900473ffffffffffffffffffffffffffffffffffffffff16908060050154908060060160009054906101000a900473ffffffffffffffffffffffffffffffffffffffff16908060070154908060080160009054906101000a900460ff16905089565b600060016000838152602001908152602001600020905060018160080160006101000a81548160ff021916908315150217905550338160060160006101000a81548173ffffffffffffffffffffffffffffffffffffffff021916908373ffffffffffffffffffffffffffffffffffffffff1602179055504281600701819055505050565b600080815480929190610214906105ab565b919050555060405180610120016040528060005481526020018473ffffffffffffffffffffffffffffffffffffffff1681526020018381526020018281526020013373ffffffffffffffffffffffffffffffffffffffff168152602001428152602001600073ffffffffffffffffffffffffffffffffffffffff168152602001600081526020016000151581525060016000805481526020019081526020016000206000820151816000015560208201518160010160006101000a81548173ffffffffffffffffffffffffffffffffffffffff021916908373ffffffffffffffffffffffffffffffffffffffff160217905550604082015181600201556060820151816003015560808201518160040160006101000a81548173ffffffffffffffffffffffffffffffffffffffff021916908373ffffffffffffffffffffffffffffffffffffffff16021790555060a0820151816005015560c08201518160060160006101000a81548173ffffffffffffffffffffffffffffffffffffffff021916908373ffffffffffffffffffffffffffffffffffffffff16021790555060e082015181600701556101008201518160080160006101000a81548160ff021916908315150217905550905050505050565b6000813590506103f581610623565b92915050565b60008135905061040a8161063a565b92915050565b60008060006060848603121561042557600080fd5b6000610433868287016103e6565b9350506020610444868287016103fb565b9250506040610455868287016103fb565b9150509250925092565b60006020828403121561047157600080fd5b600061047f848285016103fb565b91505092915050565b61049181610563565b82525050565b6104a081610551565b82525050565b6104af81610575565b82525050565b6104be816105a1565b82525050565b6000610120820190506104da600083018c6104b5565b6104e7602083018b610497565b6104f4604083018a6104b5565b61050160608301896104b5565b61050e6080830188610488565b61051b60a08301876104b5565b61052860c0830186610497565b61053560e08301856104b5565b6105436101008301846104a6565b9a9950505050505050505050565b600061055c82610581565b9050919050565b600061056e82610581565b9050919050565b60008115159050919050565b600073ffffffffffffffffffffffffffffffffffffffff82169050919050565b6000819050919050565b60006105b6826105a1565b91507fffffffffffffffffffffffffffffffffffffffffffffffffffffffffffffffff8214156105e9576105e86105f4565b5b600182019050919050565b7f4e487b7100000000000000000000000000000000000000000000000000000000600052601160045260246000fd5b61062c81610551565b811461063757600080fd5b50565b610643816105a1565b811461064e57600080fd5b5056fea264697066735822122030ba6679f4eb35644b95c49a6e72ee9b96a92ab58ca583c1d3f54ee2da5ca89564736f6c63430008040033",
  "linkReferences": {},
  "deployedLinkReferences": {}
}