{
  "_format": "hh-sol-artifact-1",
  "contractName": "Squaring",
  "sourceName": "contracts/Caching/Squaring.sol",
  "abi": [
    {
      "inputs": [
        {
          "internalType": "uint256[]",
          "name": "_nums",
          "type": "uint256[]"
        }
      ],
      "stateMutability": "nonpayable",
      "type": "constructor"
    },
    {
      "inputs": [
        {
          "internalType": "uint256",
          "name": "",
          "type": "uint256"
        }
      ],
      "name": "nums",
      "outputs": [
        {
          "internalType": "uint256",
          "name": "",
          "type": "uint256"
        }
      ],
      "stateMutability": "view",
      "type": "function"
    },
    {
      "inputs": [
        {
          "internalType": "uint256",
          "name": "_index",
          "type": "uint256"
        }
      ],
      "name": "sqrNumCached",
      "outputs": [],
      "stateMutability": "nonpayable",
      "type": "function"
    },
    {
      "inputs": [
        {
          "internalType": "uint256",
          "name": "_index",
          "type": "uint256"
        }
      ],
      "name": "sqrNumUncached",
      "outputs": [],
      "stateMutability": "nonpayable",
      "type": "function"
    },
    {
      "inputs": [
        {
          "internalType": "uint256",
          "name": "",
          "type": "uint256"
        }
      ],
      "name": "sqrs",
      "outputs": [
        {
          "internalType": "uint256",
          "name": "",
          "type": "uint256"
        }
      ],
      "stateMutability": "view",
      "type": "function"
    }
  ],
  "bytecode": "0x608060405234801561001057600080fd5b506040516107ad3803806107ad833981810160405281019061003291906101ee565b80600090805190602001906100489291906100d9565b5060008054905067ffffffffffffffff81111561008e577f4e487b7100000000000000000000000000000000000000000000000000000000600052604160045260246000fd5b6040519080825280602002602001820160405280156100bc5781602001602082028036833780820191505090505b50600190805190602001906100d29291906100d9565b5050610312565b828054828255906000526020600020908101928215610115579160200282015b828111156101145782518255916020019190600101906100f9565b5b5090506101229190610126565b5090565b5b8082111561013f576000816000905550600101610127565b5090565b600061015661015184610254565b61022f565b9050808382526020820190508285602086028201111561017557600080fd5b60005b858110156101a5578161018b88826101d9565b845260208401935060208301925050600181019050610178565b5050509392505050565b600082601f8301126101c057600080fd5b81516101d0848260208601610143565b91505092915050565b6000815190506101e8816102fb565b92915050565b60006020828403121561020057600080fd5b600082015167ffffffffffffffff81111561021a57600080fd5b610226848285016101af565b91505092915050565b600061023961024a565b9050610245828261028a565b919050565b6000604051905090565b600067ffffffffffffffff82111561026f5761026e6102bb565b5b602082029050602081019050919050565b6000819050919050565b610293826102ea565b810181811067ffffffffffffffff821117156102b2576102b16102bb565b5b80604052505050565b7f4e487b7100000000000000000000000000000000000000000000000000000000600052604160045260246000fd5b6000601f19601f8301169050919050565b61030481610280565b811461030f57600080fd5b50565b61048c806103216000396000f3fe608060405234801561001057600080fd5b506004361061004c5760003560e01c8063314801ef146100515780634c2f06ce14610081578063cd5560f91461009d578063fd1ee54c146100b9575b600080fd5b61006b60048036038101906100669190610314565b6100e9565b604051610078919061034c565b60405180910390f35b61009b60048036038101906100969190610314565b61010d565b005b6100b760048036038101906100b29190610314565b6101d5565b005b6100d360048036038101906100ce9190610314565b6102db565b6040516100e0919061034c565b60405180910390f35b600181815481106100f957600080fd5b906000526020600020016000915090505481565b6000806000838154811061014a577f4e487b7100000000000000000000000000000000000000000000000000000000600052603260045260246000fd5b906000526020600020015490506000600190505b8181116101865781836101719190610367565b9250808061017e906103c7565b91505061015e565b5081600184815481106101c2577f4e487b7100000000000000000000000000000000000000000000000000000000600052603260045260246000fd5b9060005260206000200181905550505050565b600080600090505b60008381548110610217577f4e487b7100000000000000000000000000000000000000000000000000000000600052603260045260246000fd5b9060005260206000200154811161028d5760008381548110610262577f4e487b7100000000000000000000000000000000000000000000000000000000600052603260045260246000fd5b9060005260206000200154826102789190610367565b91508080610285906103c7565b9150506101dd565b5080600183815481106102c9577f4e487b7100000000000000000000000000000000000000000000000000000000600052603260045260246000fd5b90600052602060002001819055505050565b600081815481106102eb57600080fd5b906000526020600020016000915090505481565b60008135905061030e8161043f565b92915050565b60006020828403121561032657600080fd5b6000610334848285016102ff565b91505092915050565b610346816103bd565b82525050565b6000602082019050610361600083018461033d565b92915050565b6000610372826103bd565b915061037d836103bd565b9250827fffffffffffffffffffffffffffffffffffffffffffffffffffffffffffffffff038211156103b2576103b1610410565b5b828201905092915050565b6000819050919050565b60006103d2826103bd565b91507fffffffffffffffffffffffffffffffffffffffffffffffffffffffffffffffff82141561040557610404610410565b5b600182019050919050565b7f4e487b7100000000000000000000000000000000000000000000000000000000600052601160045260246000fd5b610448816103bd565b811461045357600080fd5b5056fea2646970667358221220cb23aa93d7cf07181010a4e4a1cd1d39c9904ea16d74a899e1466d267542c91464736f6c63430008040033",
  "linkReferences": {},
  "deployedLinkReferences": {}
}