{
  "_format": "hh-sol-artifact-1",
  "contractName": "MarketplaceWithEvents",
  "sourceName": "contracts/Events/MarketplaceWithEvents.sol",
  "abi": [
    {
      "anonymous": false,
      "inputs": [
        {
          "indexed": false,
          "internalType": "uint256",
          "name": "itemId",
          "type": "uint256"
        },
        {
          "indexed": true,
          "internalType": "address",
          "name": "nft",
          "type": "address"
        },
        {
          "indexed": false,
          "internalType": "uint256",
          "name": "tokenId",
          "type": "uint256"
        },
        {
          "indexed": false,
          "internalType": "uint256",
          "name": "price",
          "type": "uint256"
        },
        {
          "indexed": true,
          "internalType": "address",
          "name": "seller",
          "type": "address"
        },
        {
          "indexed": true,
          "internalType": "address",
          "name": "buyer",
          "type": "address"
        },
        {
          "indexed": false,
          "internalType": "uint256",
          "name": "timestamp",
          "type": "uint256"
        }
      ],
      "name": "Bought",
      "type": "event"
    },
    {
      "anonymous": false,
      "inputs": [
        {
          "indexed": false,
          "internalType": "uint256",
          "name": "itemId",
          "type": "uint256"
        },
        {
          "indexed": true,
          "internalType": "address",
          "name": "nft",
          "type": "address"
        },
        {
          "indexed": false,
          "internalType": "uint256",
          "name": "tokenId",
          "type": "uint256"
        },
        {
          "indexed": false,
          "internalType": "uint256",
          "name": "price",
          "type": "uint256"
        },
        {
          "indexed": true,
          "internalType": "address",
          "name": "seller",
          "type": "address"
        },
        {
          "indexed": false,
          "internalType": "uint256",
          "name": "timestamp",
          "type": "uint256"
        }
      ],
      "name": "Offered",
      "type": "event"
    },
    {
      "inputs": [
        {
          "internalType": "uint256",
          "name": "_itemId",
          "type": "uint256"
        }
      ],
      "name": "buyItem",
      "outputs": [],
      "stateMutability": "payable",
      "type": "function"
    },
    {
      "inputs": [
        {
          "internalType": "uint256",
          "name": "",
          "type": "uint256"
        }
      ],
      "name": "items",
      "outputs": [
        {
          "internalType": "uint256",
          "name": "itemId",
          "type": "uint256"
        },
        {
          "internalType": "address",
          "name": "nftContract",
          "type": "address"
        },
        {
          "internalType": "uint256",
          "name": "tokenId",
          "type": "uint256"
        },
        {
          "internalType": "uint256",
          "name": "price",
          "type": "uint256"
        },
        {
          "internalType": "address payable",
          "name": "seller",
          "type": "address"
        },
        {
          "internalType": "bool",
          "name": "sold",
          "type": "bool"
        }
      ],
      "stateMutability": "view",
      "type": "function"
    },
    {
      "inputs": [
        {
          "internalType": "address",
          "name": "_nftContract",
          "type": "address"
        },
        {
          "internalType": "uint256",
          "name": "_tokenId",
          "type": "uint256"
        },
        {
          "internalType": "uint256",
          "name": "_price",
          "type": "uint256"
        }
      ],
      "name": "makeItem",
      "outputs": [],
      "stateMutability": "nonpayable",
      "type": "function"
    }
  ],
  "bytecode": "0x608060405234801561001057600080fd5b506106d7806100206000396000f3fe6080604052600436106100345760003560e01c8063bfb231d214610039578063e7fb74c71461007b578063fa00afc714610097575b600080fd5b34801561004557600080fd5b50610060600480360381019061005b9190610496565b6100c0565b604051610072969594939291906104fb565b60405180910390f35b61009560048036038101906100909190610496565b610149565b005b3480156100a357600080fd5b506100be60048036038101906100b99190610447565b610253565b005b60016020528060005260406000206000915090508060000154908060010160009054906101000a900473ffffffffffffffffffffffffffffffffffffffff16908060020154908060030154908060040160009054906101000a900473ffffffffffffffffffffffffffffffffffffffff16908060040160149054906101000a900460ff16905086565b600060016000838152602001908152602001600020905060018160040160146101000a81548160ff0219169083151502179055503373ffffffffffffffffffffffffffffffffffffffff168160040160009054906101000a900473ffffffffffffffffffffffffffffffffffffffff1673ffffffffffffffffffffffffffffffffffffffff168260010160009054906101000a900473ffffffffffffffffffffffffffffffffffffffff1673ffffffffffffffffffffffffffffffffffffffff167fd78abc9e0d4dfe3f1e95dc2c5f8a6e6a3af57ab1174162e12eb01b661099ae00858560020154866003015442604051610247949392919061055c565b60405180910390a45050565b600080815480929190610265906105fb565b91905055506040518060c0016040528060005481526020018473ffffffffffffffffffffffffffffffffffffffff1681526020018381526020018281526020013373ffffffffffffffffffffffffffffffffffffffff1681526020016000151581525060016000805481526020019081526020016000206000820151816000015560208201518160010160006101000a81548173ffffffffffffffffffffffffffffffffffffffff021916908373ffffffffffffffffffffffffffffffffffffffff160217905550604082015181600201556060820151816003015560808201518160040160006101000a81548173ffffffffffffffffffffffffffffffffffffffff021916908373ffffffffffffffffffffffffffffffffffffffff16021790555060a08201518160040160146101000a81548160ff0219169083151502179055509050503373ffffffffffffffffffffffffffffffffffffffff168373ffffffffffffffffffffffffffffffffffffffff167f68691bf1ff4da1d17e26d154d655adee05f2c30e99638bfce346224ffd490995600054858542604051610410949392919061055c565b60405180910390a3505050565b60008135905061042c81610673565b92915050565b6000813590506104418161068a565b92915050565b60008060006060848603121561045c57600080fd5b600061046a8682870161041d565b935050602061047b86828701610432565b925050604061048c86828701610432565b9150509250925092565b6000602082840312156104a857600080fd5b60006104b684828501610432565b91505092915050565b6104c8816105b3565b82525050565b6104d7816105a1565b82525050565b6104e6816105c5565b82525050565b6104f5816105f1565b82525050565b600060c08201905061051060008301896104ec565b61051d60208301886104ce565b61052a60408301876104ec565b61053760608301866104ec565b61054460808301856104bf565b61055160a08301846104dd565b979650505050505050565b600060808201905061057160008301876104ec565b61057e60208301866104ec565b61058b60408301856104ec565b61059860608301846104ec565b95945050505050565b60006105ac826105d1565b9050919050565b60006105be826105d1565b9050919050565b60008115159050919050565b600073ffffffffffffffffffffffffffffffffffffffff82169050919050565b6000819050919050565b6000610606826105f1565b91507fffffffffffffffffffffffffffffffffffffffffffffffffffffffffffffffff82141561063957610638610644565b5b600182019050919050565b7f4e487b7100000000000000000000000000000000000000000000000000000000600052601160045260246000fd5b61067c816105a1565b811461068757600080fd5b50565b610693816105f1565b811461069e57600080fd5b5056fea26469706673582212203376003af159e64907872514f56bc04199947567b140ec822a10b97b2c3978b564736f6c63430008040033",
  "linkReferences": {},
  "deployedLinkReferences": {}
}